{
  "contractName": "CreatorNFT",
  "abi": [
    {
      "inputs": [
        {
          "internalType": "address",
          "name": "creatorAddress",
          "type": "address"
        },
        {
          "internalType": "uint256",
          "name": "price",
          "type": "uint256"
        },
        {
          "internalType": "string",
          "name": "userReferenceID",
          "type": "string"
        },
        {
          "internalType": "string",
          "name": "tokenName",
          "type": "string"
        },
        {
          "internalType": "string",
          "name": "tokenSymbol",
          "type": "string"
        },
        {
          "internalType": "string",
          "name": "creatorTokenURI",
          "type": "string"
        }
      ],
      "stateMutability": "nonpayable",
      "type": "constructor"
    },
    {
      "anonymous": false,
      "inputs": [
        {
          "indexed": true,
          "internalType": "address",
          "name": "owner",
          "type": "address"
        },
        {
          "indexed": true,
          "internalType": "address",
          "name": "approved",
          "type": "address"
        },
        {
          "indexed": true,
          "internalType": "uint256",
          "name": "tokenId",
          "type": "uint256"
        }
      ],
      "name": "Approval",
      "type": "event"
    },
    {
      "anonymous": false,
      "inputs": [
        {
          "indexed": true,
          "internalType": "address",
          "name": "owner",
          "type": "address"
        },
        {
          "indexed": true,
          "internalType": "address",
          "name": "operator",
          "type": "address"
        },
        {
          "indexed": false,
          "internalType": "bool",
          "name": "approved",
          "type": "bool"
        }
      ],
      "name": "ApprovalForAll",
      "type": "event"
    },
    {
      "anonymous": false,
      "inputs": [
        {
          "indexed": true,
          "internalType": "address",
          "name": "previousOwner",
          "type": "address"
        },
        {
          "indexed": true,
          "internalType": "address",
          "name": "newOwner",
          "type": "address"
        }
      ],
      "name": "OwnershipTransferred",
      "type": "event"
    },
    {
      "anonymous": false,
      "inputs": [
        {
          "indexed": true,
          "internalType": "address",
          "name": "from",
          "type": "address"
        },
        {
          "indexed": true,
          "internalType": "address",
          "name": "to",
          "type": "address"
        },
        {
          "indexed": true,
          "internalType": "uint256",
          "name": "tokenId",
          "type": "uint256"
        }
      ],
      "name": "Transfer",
      "type": "event"
    },
    {
      "inputs": [
        {
          "internalType": "address",
          "name": "to",
          "type": "address"
        },
        {
          "internalType": "uint256",
          "name": "tokenId",
          "type": "uint256"
        }
      ],
      "name": "approve",
      "outputs": [],
      "stateMutability": "nonpayable",
      "type": "function"
    },
    {
      "inputs": [
        {
          "internalType": "address",
          "name": "owner",
          "type": "address"
        }
      ],
      "name": "balanceOf",
      "outputs": [
        {
          "internalType": "uint256",
          "name": "",
          "type": "uint256"
        }
      ],
      "stateMutability": "view",
      "type": "function"
    },
    {
      "inputs": [
        {
          "internalType": "uint256",
          "name": "tokenId",
          "type": "uint256"
        }
      ],
      "name": "getApproved",
      "outputs": [
        {
          "internalType": "address",
          "name": "",
          "type": "address"
        }
      ],
      "stateMutability": "view",
      "type": "function"
    },
    {
      "inputs": [
        {
          "internalType": "address",
          "name": "owner",
          "type": "address"
        },
        {
          "internalType": "address",
          "name": "operator",
          "type": "address"
        }
      ],
      "name": "isApprovedForAll",
      "outputs": [
        {
          "internalType": "bool",
          "name": "",
          "type": "bool"
        }
      ],
      "stateMutability": "view",
      "type": "function"
    },
    {
      "inputs": [],
      "name": "name",
      "outputs": [
        {
          "internalType": "string",
          "name": "",
          "type": "string"
        }
      ],
      "stateMutability": "view",
      "type": "function"
    },
    {
      "inputs": [],
      "name": "owner",
      "outputs": [
        {
          "internalType": "address",
          "name": "",
          "type": "address"
        }
      ],
      "stateMutability": "view",
      "type": "function"
    },
    {
      "inputs": [
        {
          "internalType": "uint256",
          "name": "tokenId",
          "type": "uint256"
        }
      ],
      "name": "ownerOf",
      "outputs": [
        {
          "internalType": "address",
          "name": "",
          "type": "address"
        }
      ],
      "stateMutability": "view",
      "type": "function"
    },
    {
      "inputs": [],
      "name": "renounceOwnership",
      "outputs": [],
      "stateMutability": "nonpayable",
      "type": "function"
    },
    {
      "inputs": [
        {
          "internalType": "address",
          "name": "from",
          "type": "address"
        },
        {
          "internalType": "address",
          "name": "to",
          "type": "address"
        },
        {
          "internalType": "uint256",
          "name": "tokenId",
          "type": "uint256"
        }
      ],
      "name": "safeTransferFrom",
      "outputs": [],
      "stateMutability": "nonpayable",
      "type": "function"
    },
    {
      "inputs": [
        {
          "internalType": "address",
          "name": "from",
          "type": "address"
        },
        {
          "internalType": "address",
          "name": "to",
          "type": "address"
        },
        {
          "internalType": "uint256",
          "name": "tokenId",
          "type": "uint256"
        },
        {
          "internalType": "bytes",
          "name": "data",
          "type": "bytes"
        }
      ],
      "name": "safeTransferFrom",
      "outputs": [],
      "stateMutability": "nonpayable",
      "type": "function"
    },
    {
      "inputs": [
        {
          "internalType": "address",
          "name": "operator",
          "type": "address"
        },
        {
          "internalType": "bool",
          "name": "approved",
          "type": "bool"
        }
      ],
      "name": "setApprovalForAll",
      "outputs": [],
      "stateMutability": "nonpayable",
      "type": "function"
    },
    {
      "inputs": [
        {
          "internalType": "bytes4",
          "name": "interfaceId",
          "type": "bytes4"
        }
      ],
      "name": "supportsInterface",
      "outputs": [
        {
          "internalType": "bool",
          "name": "",
          "type": "bool"
        }
      ],
      "stateMutability": "view",
      "type": "function"
    },
    {
      "inputs": [],
      "name": "symbol",
      "outputs": [
        {
          "internalType": "string",
          "name": "",
          "type": "string"
        }
      ],
      "stateMutability": "view",
      "type": "function"
    },
    {
      "inputs": [
        {
          "internalType": "uint256",
          "name": "tokenId",
          "type": "uint256"
        }
      ],
      "name": "tokenURI",
      "outputs": [
        {
          "internalType": "string",
          "name": "",
          "type": "string"
        }
      ],
      "stateMutability": "view",
      "type": "function"
    },
    {
      "inputs": [
        {
          "internalType": "address",
          "name": "from",
          "type": "address"
        },
        {
          "internalType": "address",
          "name": "to",
          "type": "address"
        },
        {
          "internalType": "uint256",
          "name": "tokenId",
          "type": "uint256"
        }
      ],
      "name": "transferFrom",
      "outputs": [],
      "stateMutability": "nonpayable",
      "type": "function"
    },
    {
      "inputs": [
        {
          "internalType": "address",
          "name": "newOwner",
          "type": "address"
        }
      ],
      "name": "transferOwnership",
      "outputs": [],
      "stateMutability": "nonpayable",
      "type": "function"
    },
    {
      "inputs": [
        {
          "internalType": "uint256",
          "name": "newPrice",
          "type": "uint256"
        }
      ],
      "name": "changePrice",
      "outputs": [],
      "stateMutability": "nonpayable",
      "type": "function"
    },
    {
      "inputs": [],
      "name": "getPrice",
      "outputs": [
        {
          "internalType": "uint256",
          "name": "",
          "type": "uint256"
        }
      ],
      "stateMutability": "view",
      "type": "function"
    },
    {
      "inputs": [],
      "name": "purchaseSubscription",
      "outputs": [
        {
          "internalType": "uint256",
          "name": "",
          "type": "uint256"
        }
      ],
      "stateMutability": "payable",
      "type": "function"
    }
  ],
  "bytecode": "0x60806040523480156200001157600080fd5b5060405162003c6b38038062003c6b833981810160405281019062000037919062000409565b828281600090816200004a919062000762565b5080600190816200005c919062000762565b5050506200007f620000736200010860201b60201c565b6200011060201b60201c565b85600960006101000a81548173ffffffffffffffffffffffffffffffffffffffff021916908373ffffffffffffffffffffffffffffffffffffffff16021790555084600a8190555083600b9081620000d8919062000762565b5080600c9081620000ea919062000762565b50620000fc866200011060201b60201c565b50505050505062000849565b600033905090565b6000600760009054906101000a900473ffffffffffffffffffffffffffffffffffffffff16905081600760006101000a81548173ffffffffffffffffffffffffffffffffffffffff021916908373ffffffffffffffffffffffffffffffffffffffff1602179055508173ffffffffffffffffffffffffffffffffffffffff168173ffffffffffffffffffffffffffffffffffffffff167f8be0079c531659141344cd1fd0a4f28419497f9722a3daafe3b4186f6b6457e060405160405180910390a35050565b6000604051905090565b600080fd5b600080fd5b600073ffffffffffffffffffffffffffffffffffffffff82169050919050565b60006200021782620001ea565b9050919050565b62000229816200020a565b81146200023557600080fd5b50565b60008151905062000249816200021e565b92915050565b6000819050919050565b62000264816200024f565b81146200027057600080fd5b50565b600081519050620002848162000259565b92915050565b600080fd5b600080fd5b6000601f19601f8301169050919050565b7f4e487b7100000000000000000000000000000000000000000000000000000000600052604160045260246000fd5b620002df8262000294565b810181811067ffffffffffffffff82111715620003015762000300620002a5565b5b80604052505050565b600062000316620001d6565b9050620003248282620002d4565b919050565b600067ffffffffffffffff821115620003475762000346620002a5565b5b620003528262000294565b9050602081019050919050565b60005b838110156200037f57808201518184015260208101905062000362565b60008484015250505050565b6000620003a26200039c8462000329565b6200030a565b905082815260208101848484011115620003c157620003c06200028f565b5b620003ce8482856200035f565b509392505050565b600082601f830112620003ee57620003ed6200028a565b5b8151620004008482602086016200038b565b91505092915050565b60008060008060008060c08789031215620004295762000428620001e0565b5b60006200043989828a0162000238565b96505060206200044c89828a0162000273565b955050604087015167ffffffffffffffff81111562000470576200046f620001e5565b5b6200047e89828a01620003d6565b945050606087015167ffffffffffffffff811115620004a257620004a1620001e5565b5b620004b089828a01620003d6565b935050608087015167ffffffffffffffff811115620004d457620004d3620001e5565b5b620004e289828a01620003d6565b92505060a087015167ffffffffffffffff811115620005065762000505620001e5565b5b6200051489828a01620003d6565b9150509295509295509295565b600081519050919050565b7f4e487b7100000000000000000000000000000000000000000000000000000000600052602260045260246000fd5b600060028204905060018216806200057457607f821691505b6020821081036200058a57620005896200052c565b5b50919050565b60008190508160005260206000209050919050565b60006020601f8301049050919050565b600082821b905092915050565b600060088302620005f47fffffffffffffffffffffffffffffffffffffffffffffffffffffffffffffffff82620005b5565b620006008683620005b5565b95508019841693508086168417925050509392505050565b6000819050919050565b6000620006436200063d62000637846200024f565b62000618565b6200024f565b9050919050565b6000819050919050565b6200065f8362000622565b620006776200066e826200064a565b848454620005c2565b825550505050565b600090565b6200068e6200067f565b6200069b81848462000654565b505050565b5b81811015620006c357620006b760008262000684565b600181019050620006a1565b5050565b601f8211156200071257620006dc8162000590565b620006e784620005a5565b81016020851015620006f7578190505b6200070f6200070685620005a5565b830182620006a0565b50505b505050565b600082821c905092915050565b6000620007376000198460080262000717565b1980831691505092915050565b600062000752838362000724565b9150826002028217905092915050565b6200076d8262000521565b67ffffffffffffffff811115620007895762000788620002a5565b5b6200079582546200055b565b620007a2828285620006c7565b600060209050601f831160018114620007da5760008415620007c5578287015190505b620007d1858262000744565b86555062000841565b601f198416620007ea8662000590565b60005b828110156200081457848901518255600182019150602085019450602081019050620007ed565b8683101562000834578489015162000830601f89168262000724565b8355505b6001600288020188555050505b505050505050565b61341280620008596000396000f3fe6080604052600436106101145760003560e01c80638da5cb5b116100a0578063b88d4fde11610064578063b88d4fde1461039d578063c87b56dd146103c6578063db1bed2214610403578063e985e9c514610421578063f2fde38b1461045e57610114565b80638da5cb5b146102ca57806395d89b41146102f557806398d5fdca14610320578063a22cb4651461034b578063a2b40d191461037457610114565b806323b872dd116100e757806323b872dd146101e757806342842e0e146102105780636352211e1461023957806370a0823114610276578063715018a6146102b357610114565b806301ffc9a71461011957806306fdde0314610156578063081812fc14610181578063095ea7b3146101be575b600080fd5b34801561012557600080fd5b50610140600480360381019061013b91906120df565b610487565b60405161014d9190612127565b60405180910390f35b34801561016257600080fd5b5061016b610569565b60405161017891906121d2565b60405180910390f35b34801561018d57600080fd5b506101a860048036038101906101a3919061222a565b6105fb565b6040516101b59190612298565b60405180910390f35b3480156101ca57600080fd5b506101e560048036038101906101e091906122df565b610641565b005b3480156101f357600080fd5b5061020e6004803603810190610209919061231f565b610758565b005b34801561021c57600080fd5b506102376004803603810190610232919061231f565b6107b8565b005b34801561024557600080fd5b50610260600480360381019061025b919061222a565b6107d8565b60405161026d9190612298565b60405180910390f35b34801561028257600080fd5b5061029d60048036038101906102989190612372565b61085e565b6040516102aa91906123ae565b60405180910390f35b3480156102bf57600080fd5b506102c8610915565b005b3480156102d657600080fd5b506102df610929565b6040516102ec9190612298565b60405180910390f35b34801561030157600080fd5b5061030a610953565b60405161031791906121d2565b60405180910390f35b34801561032c57600080fd5b506103356109e5565b60405161034291906123ae565b60405180910390f35b34801561035757600080fd5b50610372600480360381019061036d91906123f5565b6109ef565b005b34801561038057600080fd5b5061039b6004803603810190610396919061222a565b610a05565b005b3480156103a957600080fd5b506103c460048036038101906103bf919061256a565b610a17565b005b3480156103d257600080fd5b506103ed60048036038101906103e8919061222a565b610a79565b6040516103fa91906121d2565b60405180910390f35b61040b610b8b565b60405161041891906123ae565b60405180910390f35b34801561042d57600080fd5b50610448600480360381019061044391906125ed565b610e31565b6040516104559190612127565b60405180910390f35b34801561046a57600080fd5b5061048560048036038101906104809190612372565b610ec5565b005b60007f80ac58cd000000000000000000000000000000000000000000000000000000007bffffffffffffffffffffffffffffffffffffffffffffffffffffffff1916827bffffffffffffffffffffffffffffffffffffffffffffffffffffffff1916148061055257507f5b5e139f000000000000000000000000000000000000000000000000000000007bffffffffffffffffffffffffffffffffffffffffffffffffffffffff1916827bffffffffffffffffffffffffffffffffffffffffffffffffffffffff1916145b80610562575061056182610f48565b5b9050919050565b6060600080546105789061265c565b80601f01602080910402602001604051908101604052809291908181526020018280546105a49061265c565b80156105f15780601f106105c6576101008083540402835291602001916105f1565b820191906000526020600020905b8154815290600101906020018083116105d457829003601f168201915b5050505050905090565b600061060682610fb2565b6004600083815260200190815260200160002060009054906101000a900473ffffffffffffffffffffffffffffffffffffffff169050919050565b600061064c826107d8565b90508073ffffffffffffffffffffffffffffffffffffffff168373ffffffffffffffffffffffffffffffffffffffff16036106bc576040517f08c379a00000000000000000000000000000000000000000000000000000000081526004016106b3906126ff565b60405180910390fd5b8073ffffffffffffffffffffffffffffffffffffffff166106db610ffd565b73ffffffffffffffffffffffffffffffffffffffff16148061070a575061070981610704610ffd565b610e31565b5b610749576040517f08c379a000000000000000000000000000000000000000000000000000000000815260040161074090612791565b60405180910390fd5b6107538383611005565b505050565b610769610763610ffd565b826110be565b6107a8576040517f08c379a000000000000000000000000000000000000000000000000000000000815260040161079f90612823565b60405180910390fd5b6107b3838383611153565b505050565b6107d383838360405180602001604052806000815250610a17565b505050565b6000806107e48361144c565b9050600073ffffffffffffffffffffffffffffffffffffffff168173ffffffffffffffffffffffffffffffffffffffff1603610855576040517f08c379a000000000000000000000000000000000000000000000000000000000815260040161084c9061288f565b60405180910390fd5b80915050919050565b60008073ffffffffffffffffffffffffffffffffffffffff168273ffffffffffffffffffffffffffffffffffffffff16036108ce576040517f08c379a00000000000000000000000000000000000000000000000000000000081526004016108c590612921565b60405180910390fd5b600360008373ffffffffffffffffffffffffffffffffffffffff1673ffffffffffffffffffffffffffffffffffffffff168152602001908152602001600020549050919050565b61091d611489565b6109276000611507565b565b6000600760009054906101000a900473ffffffffffffffffffffffffffffffffffffffff16905090565b6060600180546109629061265c565b80601f016020809104026020016040519081016040528092919081815260200182805461098e9061265c565b80156109db5780601f106109b0576101008083540402835291602001916109db565b820191906000526020600020905b8154815290600101906020018083116109be57829003601f168201915b5050505050905090565b6000600a54905090565b610a016109fa610ffd565b83836115cd565b5050565b610a0d611489565b80600a8190555050565b610a28610a22610ffd565b836110be565b610a67576040517f08c379a0000000000000000000000000000000000000000000000000000000008152600401610a5e90612823565b60405180910390fd5b610a7384848484611739565b50505050565b6060610a8482610fb2565b6000600660008481526020019081526020016000208054610aa49061265c565b80601f0160208091040260200160405190810160405280929190818152602001828054610ad09061265c565b8015610b1d5780601f10610af257610100808354040283529160200191610b1d565b820191906000526020600020905b815481529060010190602001808311610b0057829003601f168201915b505050505090506000610b2e611795565b90506000815103610b43578192505050610b86565b600082511115610b78578082604051602001610b6092919061297d565b60405160208183030381529060405292505050610b86565b610b81846117ac565b925050505b919050565b6000600a54341015610bd2576040517f08c379a0000000000000000000000000000000000000000000000000000000008152600401610bc9906129ed565b60405180910390fd5b6000610be4610bdf610ffd565b61085e565b1115610c25576040517f08c379a0000000000000000000000000000000000000000000000000000000008152600401610c1c90612a59565b60405180910390fd5b610c2f6008611814565b6000610c3b600861182a565b9050610c4e610c48610ffd565b82611838565b610ce281600c8054610c5f9061265c565b80601f0160208091040260200160405190810160405280929190818152602001828054610c8b9061265c565b8015610cd85780601f10610cad57610100808354040283529160200191610cd8565b820191906000526020600020905b815481529060010190602001808311610cbb57829003601f168201915b5050505050611856565b6000610ced826107d8565b9050610d0181610cfb610ffd565b84611153565b610d09610ffd565b600d600084815260200190815260200160002060006101000a81548173ffffffffffffffffffffffffffffffffffffffff021916908373ffffffffffffffffffffffffffffffffffffffff1602179055506000600960009054906101000a900473ffffffffffffffffffffffffffffffffffffffff1673ffffffffffffffffffffffffffffffffffffffff1634604051610da290612aaa565b60006040518083038185875af1925050503d8060008114610ddf576040519150601f19603f3d011682016040523d82523d6000602084013e610de4565b606091505b5050905080610e28576040517f08c379a0000000000000000000000000000000000000000000000000000000008152600401610e1f90612b0b565b60405180910390fd5b82935050505090565b6000600560008473ffffffffffffffffffffffffffffffffffffffff1673ffffffffffffffffffffffffffffffffffffffff16815260200190815260200160002060008373ffffffffffffffffffffffffffffffffffffffff1673ffffffffffffffffffffffffffffffffffffffff16815260200190815260200160002060009054906101000a900460ff16905092915050565b610ecd611489565b600073ffffffffffffffffffffffffffffffffffffffff168173ffffffffffffffffffffffffffffffffffffffff1603610f3c576040517f08c379a0000000000000000000000000000000000000000000000000000000008152600401610f3390612b9d565b60405180910390fd5b610f4581611507565b50565b60007f01ffc9a7000000000000000000000000000000000000000000000000000000007bffffffffffffffffffffffffffffffffffffffffffffffffffffffff1916827bffffffffffffffffffffffffffffffffffffffffffffffffffffffff1916149050919050565b610fbb816118c3565b610ffa576040517f08c379a0000000000000000000000000000000000000000000000000000000008152600401610ff19061288f565b60405180910390fd5b50565b600033905090565b816004600083815260200190815260200160002060006101000a81548173ffffffffffffffffffffffffffffffffffffffff021916908373ffffffffffffffffffffffffffffffffffffffff160217905550808273ffffffffffffffffffffffffffffffffffffffff16611078836107d8565b73ffffffffffffffffffffffffffffffffffffffff167f8c5be1e5ebec7d5bd14f71427d1e84f3dd0314c0f7b2291e5b200ac8c7c3b92560405160405180910390a45050565b6000806110ca836107d8565b90508073ffffffffffffffffffffffffffffffffffffffff168473ffffffffffffffffffffffffffffffffffffffff16148061110c575061110b8185610e31565b5b8061114a57508373ffffffffffffffffffffffffffffffffffffffff16611132846105fb565b73ffffffffffffffffffffffffffffffffffffffff16145b91505092915050565b8273ffffffffffffffffffffffffffffffffffffffff16611173826107d8565b73ffffffffffffffffffffffffffffffffffffffff16146111c9576040517f08c379a00000000000000000000000000000000000000000000000000000000081526004016111c090612c2f565b60405180910390fd5b600073ffffffffffffffffffffffffffffffffffffffff168273ffffffffffffffffffffffffffffffffffffffff1603611238576040517f08c379a000000000000000000000000000000000000000000000000000000000815260040161122f90612cc1565b60405180910390fd5b6112458383836001611904565b8273ffffffffffffffffffffffffffffffffffffffff16611265826107d8565b73ffffffffffffffffffffffffffffffffffffffff16146112bb576040517f08c379a00000000000000000000000000000000000000000000000000000000081526004016112b290612c2f565b60405180910390fd5b6004600082815260200190815260200160002060006101000a81549073ffffffffffffffffffffffffffffffffffffffff02191690556001600360008573ffffffffffffffffffffffffffffffffffffffff1673ffffffffffffffffffffffffffffffffffffffff168152602001908152602001600020600082825403925050819055506001600360008473ffffffffffffffffffffffffffffffffffffffff1673ffffffffffffffffffffffffffffffffffffffff16815260200190815260200160002060008282540192505081905550816002600083815260200190815260200160002060006101000a81548173ffffffffffffffffffffffffffffffffffffffff021916908373ffffffffffffffffffffffffffffffffffffffff160217905550808273ffffffffffffffffffffffffffffffffffffffff168473ffffffffffffffffffffffffffffffffffffffff167fddf252ad1be2c89b69c2b068fc378daa952ba7f163c4a11628f55a4df523b3ef60405160405180910390a46114478383836001611a2a565b505050565b60006002600083815260200190815260200160002060009054906101000a900473ffffffffffffffffffffffffffffffffffffffff169050919050565b611491610ffd565b73ffffffffffffffffffffffffffffffffffffffff166114af610929565b73ffffffffffffffffffffffffffffffffffffffff1614611505576040517f08c379a00000000000000000000000000000000000000000000000000000000081526004016114fc90612d2d565b60405180910390fd5b565b6000600760009054906101000a900473ffffffffffffffffffffffffffffffffffffffff16905081600760006101000a81548173ffffffffffffffffffffffffffffffffffffffff021916908373ffffffffffffffffffffffffffffffffffffffff1602179055508173ffffffffffffffffffffffffffffffffffffffff168173ffffffffffffffffffffffffffffffffffffffff167f8be0079c531659141344cd1fd0a4f28419497f9722a3daafe3b4186f6b6457e060405160405180910390a35050565b8173ffffffffffffffffffffffffffffffffffffffff168373ffffffffffffffffffffffffffffffffffffffff160361163b576040517f08c379a000000000000000000000000000000000000000000000000000000000815260040161163290612d99565b60405180910390fd5b80600560008573ffffffffffffffffffffffffffffffffffffffff1673ffffffffffffffffffffffffffffffffffffffff16815260200190815260200160002060008473ffffffffffffffffffffffffffffffffffffffff1673ffffffffffffffffffffffffffffffffffffffff16815260200190815260200160002060006101000a81548160ff0219169083151502179055508173ffffffffffffffffffffffffffffffffffffffff168373ffffffffffffffffffffffffffffffffffffffff167f17307eab39ab6107e8899845ad3d59bd9653f200f220920489ca2b5937696c318360405161172c9190612127565b60405180910390a3505050565b611744848484611153565b61175084848484611a30565b61178f576040517f08c379a000000000000000000000000000000000000000000000000000000000815260040161178690612e2b565b60405180910390fd5b50505050565b606060405180602001604052806000815250905090565b60606117b782610fb2565b60006117c1611795565b905060008151116117e1576040518060200160405280600081525061180c565b806117eb84611bb7565b6040516020016117fc92919061297d565b6040516020818303038152906040525b915050919050565b6001816000016000828254019250508190555050565b600081600001549050919050565b611852828260405180602001604052806000815250611c85565b5050565b61185f826118c3565b61189e576040517f08c379a000000000000000000000000000000000000000000000000000000000815260040161189590612ebd565b60405180910390fd5b806006600084815260200190815260200160002090816118be9190613089565b505050565b60008073ffffffffffffffffffffffffffffffffffffffff166118e58361144c565b73ffffffffffffffffffffffffffffffffffffffff1614159050919050565b6001811115611a2457600073ffffffffffffffffffffffffffffffffffffffff168473ffffffffffffffffffffffffffffffffffffffff16146119985780600360008673ffffffffffffffffffffffffffffffffffffffff1673ffffffffffffffffffffffffffffffffffffffff1681526020019081526020016000206000828254611990919061318a565b925050819055505b600073ffffffffffffffffffffffffffffffffffffffff168373ffffffffffffffffffffffffffffffffffffffff1614611a235780600360008573ffffffffffffffffffffffffffffffffffffffff1673ffffffffffffffffffffffffffffffffffffffff1681526020019081526020016000206000828254611a1b91906131be565b925050819055505b5b50505050565b50505050565b6000611a518473ffffffffffffffffffffffffffffffffffffffff16611ce0565b15611baa578373ffffffffffffffffffffffffffffffffffffffff1663150b7a02611a7a610ffd565b8786866040518563ffffffff1660e01b8152600401611a9c9493929190613247565b6020604051808303816000875af1925050508015611ad857506040513d601f19601f82011682018060405250810190611ad591906132a8565b60015b611b5a573d8060008114611b08576040519150601f19603f3d011682016040523d82523d6000602084013e611b0d565b606091505b506000815103611b52576040517f08c379a0000000000000000000000000000000000000000000000000000000008152600401611b4990612e2b565b60405180910390fd5b805181602001fd5b63150b7a0260e01b7bffffffffffffffffffffffffffffffffffffffffffffffffffffffff1916817bffffffffffffffffffffffffffffffffffffffffffffffffffffffff191614915050611baf565b600190505b949350505050565b606060006001611bc684611d03565b01905060008167ffffffffffffffff811115611be557611be461243f565b5b6040519080825280601f01601f191660200182016040528015611c175781602001600182028036833780820191505090505b509050600082602001820190505b600115611c7a578080600190039150507f3031323334353637383961626364656600000000000000000000000000000000600a86061a8153600a8581611c6e57611c6d6132d5565b5b04945060008503611c25575b819350505050919050565b611c8f8383611e56565b611c9c6000848484611a30565b611cdb576040517f08c379a0000000000000000000000000000000000000000000000000000000008152600401611cd290612e2b565b60405180910390fd5b505050565b6000808273ffffffffffffffffffffffffffffffffffffffff163b119050919050565b600080600090507a184f03e93ff9f4daa797ed6e38ed64bf6a1f0100000000000000008310611d61577a184f03e93ff9f4daa797ed6e38ed64bf6a1f0100000000000000008381611d5757611d566132d5565b5b0492506040810190505b6d04ee2d6d415b85acef81000000008310611d9e576d04ee2d6d415b85acef81000000008381611d9457611d936132d5565b5b0492506020810190505b662386f26fc100008310611dcd57662386f26fc100008381611dc357611dc26132d5565b5b0492506010810190505b6305f5e1008310611df6576305f5e1008381611dec57611deb6132d5565b5b0492506008810190505b6127108310611e1b576127108381611e1157611e106132d5565b5b0492506004810190505b60648310611e3e5760648381611e3457611e336132d5565b5b0492506002810190505b600a8310611e4d576001810190505b80915050919050565b600073ffffffffffffffffffffffffffffffffffffffff168273ffffffffffffffffffffffffffffffffffffffff1603611ec5576040517f08c379a0000000000000000000000000000000000000000000000000000000008152600401611ebc90613350565b60405180910390fd5b611ece816118c3565b15611f0e576040517f08c379a0000000000000000000000000000000000000000000000000000000008152600401611f05906133bc565b60405180910390fd5b611f1c600083836001611904565b611f25816118c3565b15611f65576040517f08c379a0000000000000000000000000000000000000000000000000000000008152600401611f5c906133bc565b60405180910390fd5b6001600360008473ffffffffffffffffffffffffffffffffffffffff1673ffffffffffffffffffffffffffffffffffffffff16815260200190815260200160002060008282540192505081905550816002600083815260200190815260200160002060006101000a81548173ffffffffffffffffffffffffffffffffffffffff021916908373ffffffffffffffffffffffffffffffffffffffff160217905550808273ffffffffffffffffffffffffffffffffffffffff16600073ffffffffffffffffffffffffffffffffffffffff167fddf252ad1be2c89b69c2b068fc378daa952ba7f163c4a11628f55a4df523b3ef60405160405180910390a461206f600083836001611a2a565b5050565b6000604051905090565b600080fd5b600080fd5b60007fffffffff0000000000000000000000000000000000000000000000000000000082169050919050565b6120bc81612087565b81146120c757600080fd5b50565b6000813590506120d9816120b3565b92915050565b6000602082840312156120f5576120f461207d565b5b6000612103848285016120ca565b91505092915050565b60008115159050919050565b6121218161210c565b82525050565b600060208201905061213c6000830184612118565b92915050565b600081519050919050565b600082825260208201905092915050565b60005b8381101561217c578082015181840152602081019050612161565b60008484015250505050565b6000601f19601f8301169050919050565b60006121a482612142565b6121ae818561214d565b93506121be81856020860161215e565b6121c781612188565b840191505092915050565b600060208201905081810360008301526121ec8184612199565b905092915050565b6000819050919050565b612207816121f4565b811461221257600080fd5b50565b600081359050612224816121fe565b92915050565b6000602082840312156122405761223f61207d565b5b600061224e84828501612215565b91505092915050565b600073ffffffffffffffffffffffffffffffffffffffff82169050919050565b600061228282612257565b9050919050565b61229281612277565b82525050565b60006020820190506122ad6000830184612289565b92915050565b6122bc81612277565b81146122c757600080fd5b50565b6000813590506122d9816122b3565b92915050565b600080604083850312156122f6576122f561207d565b5b6000612304858286016122ca565b925050602061231585828601612215565b9150509250929050565b6000806000606084860312156123385761233761207d565b5b6000612346868287016122ca565b9350506020612357868287016122ca565b925050604061236886828701612215565b9150509250925092565b6000602082840312156123885761238761207d565b5b6000612396848285016122ca565b91505092915050565b6123a8816121f4565b82525050565b60006020820190506123c3600083018461239f565b92915050565b6123d28161210c565b81146123dd57600080fd5b50565b6000813590506123ef816123c9565b92915050565b6000806040838503121561240c5761240b61207d565b5b600061241a858286016122ca565b925050602061242b858286016123e0565b9150509250929050565b600080fd5b600080fd5b7f4e487b7100000000000000000000000000000000000000000000000000000000600052604160045260246000fd5b61247782612188565b810181811067ffffffffffffffff821117156124965761249561243f565b5b80604052505050565b60006124a9612073565b90506124b5828261246e565b919050565b600067ffffffffffffffff8211156124d5576124d461243f565b5b6124de82612188565b9050602081019050919050565b82818337600083830152505050565b600061250d612508846124ba565b61249f565b9050828152602081018484840111156125295761252861243a565b5b6125348482856124eb565b509392505050565b600082601f83011261255157612550612435565b5b81356125618482602086016124fa565b91505092915050565b600080600080608085870312156125845761258361207d565b5b6000612592878288016122ca565b94505060206125a3878288016122ca565b93505060406125b487828801612215565b925050606085013567ffffffffffffffff8111156125d5576125d4612082565b5b6125e18782880161253c565b91505092959194509250565b600080604083850312156126045761260361207d565b5b6000612612858286016122ca565b9250506020612623858286016122ca565b9150509250929050565b7f4e487b7100000000000000000000000000000000000000000000000000000000600052602260045260246000fd5b6000600282049050600182168061267457607f821691505b6020821081036126875761268661262d565b5b50919050565b7f4552433732313a20617070726f76616c20746f2063757272656e74206f776e6560008201527f7200000000000000000000000000000000000000000000000000000000000000602082015250565b60006126e960218361214d565b91506126f48261268d565b604082019050919050565b60006020820190508181036000830152612718816126dc565b9050919050565b7f4552433732313a20617070726f76652063616c6c6572206973206e6f7420746f60008201527f6b656e206f776e6572206f7220617070726f76656420666f7220616c6c000000602082015250565b600061277b603d8361214d565b91506127868261271f565b604082019050919050565b600060208201905081810360008301526127aa8161276e565b9050919050565b7f4552433732313a2063616c6c6572206973206e6f7420746f6b656e206f776e6560008201527f72206f7220617070726f76656400000000000000000000000000000000000000602082015250565b600061280d602d8361214d565b9150612818826127b1565b604082019050919050565b6000602082019050818103600083015261283c81612800565b9050919050565b7f4552433732313a20696e76616c696420746f6b656e2049440000000000000000600082015250565b600061287960188361214d565b915061288482612843565b602082019050919050565b600060208201905081810360008301526128a88161286c565b9050919050565b7f4552433732313a2061646472657373207a65726f206973206e6f74206120766160008201527f6c6964206f776e65720000000000000000000000000000000000000000000000602082015250565b600061290b60298361214d565b9150612916826128af565b604082019050919050565b6000602082019050818103600083015261293a816128fe565b9050919050565b600081905092915050565b600061295782612142565b6129618185612941565b935061297181856020860161215e565b80840191505092915050565b6000612989828561294c565b9150612995828461294c565b91508190509392505050565b7f496e73756666696369656e742066756e64730000000000000000000000000000600082015250565b60006129d760128361214d565b91506129e2826129a1565b602082019050919050565b60006020820190508181036000830152612a06816129ca565b9050919050565b7f416c726561647920626f75676874204e46540000000000000000000000000000600082015250565b6000612a4360128361214d565b9150612a4e82612a0d565b602082019050919050565b60006020820190508181036000830152612a7281612a36565b9050919050565b600081905092915050565b50565b6000612a94600083612a79565b9150612a9f82612a84565b600082019050919050565b6000612ab582612a87565b9150819050919050565b7f5061796d656e74206661696c6564000000000000000000000000000000000000600082015250565b6000612af5600e8361214d565b9150612b0082612abf565b602082019050919050565b60006020820190508181036000830152612b2481612ae8565b9050919050565b7f4f776e61626c653a206e6577206f776e657220697320746865207a65726f206160008201527f6464726573730000000000000000000000000000000000000000000000000000602082015250565b6000612b8760268361214d565b9150612b9282612b2b565b604082019050919050565b60006020820190508181036000830152612bb681612b7a565b9050919050565b7f4552433732313a207472616e736665722066726f6d20696e636f72726563742060008201527f6f776e6572000000000000000000000000000000000000000000000000000000602082015250565b6000612c1960258361214d565b9150612c2482612bbd565b604082019050919050565b60006020820190508181036000830152612c4881612c0c565b9050919050565b7f4552433732313a207472616e7366657220746f20746865207a65726f2061646460008201527f7265737300000000000000000000000000000000000000000000000000000000602082015250565b6000612cab60248361214d565b9150612cb682612c4f565b604082019050919050565b60006020820190508181036000830152612cda81612c9e565b9050919050565b7f4f776e61626c653a2063616c6c6572206973206e6f7420746865206f776e6572600082015250565b6000612d1760208361214d565b9150612d2282612ce1565b602082019050919050565b60006020820190508181036000830152612d4681612d0a565b9050919050565b7f4552433732313a20617070726f766520746f2063616c6c657200000000000000600082015250565b6000612d8360198361214d565b9150612d8e82612d4d565b602082019050919050565b60006020820190508181036000830152612db281612d76565b9050919050565b7f4552433732313a207472616e7366657220746f206e6f6e20455243373231526560008201527f63656976657220696d706c656d656e7465720000000000000000000000000000602082015250565b6000612e1560328361214d565b9150612e2082612db9565b604082019050919050565b60006020820190508181036000830152612e4481612e08565b9050919050565b7f45524337323155524953746f726167653a2055524920736574206f66206e6f6e60008201527f6578697374656e7420746f6b656e000000000000000000000000000000000000602082015250565b6000612ea7602e8361214d565b9150612eb282612e4b565b604082019050919050565b60006020820190508181036000830152612ed681612e9a565b9050919050565b60008190508160005260206000209050919050565b60006020601f8301049050919050565b600082821b905092915050565b600060088302612f3f7fffffffffffffffffffffffffffffffffffffffffffffffffffffffffffffffff82612f02565b612f498683612f02565b95508019841693508086168417925050509392505050565b6000819050919050565b6000612f86612f81612f7c846121f4565b612f61565b6121f4565b9050919050565b6000819050919050565b612fa083612f6b565b612fb4612fac82612f8d565b848454612f0f565b825550505050565b600090565b612fc9612fbc565b612fd4818484612f97565b505050565b5b81811015612ff857612fed600082612fc1565b600181019050612fda565b5050565b601f82111561303d5761300e81612edd565b61301784612ef2565b81016020851015613026578190505b61303a61303285612ef2565b830182612fd9565b50505b505050565b600082821c905092915050565b600061306060001984600802613042565b1980831691505092915050565b6000613079838361304f565b9150826002028217905092915050565b61309282612142565b67ffffffffffffffff8111156130ab576130aa61243f565b5b6130b5825461265c565b6130c0828285612ffc565b600060209050601f8311600181146130f357600084156130e1578287015190505b6130eb858261306d565b865550613153565b601f19841661310186612edd565b60005b8281101561312957848901518255600182019150602085019450602081019050613104565b868310156131465784890151613142601f89168261304f565b8355505b6001600288020188555050505b505050505050565b7f4e487b7100000000000000000000000000000000000000000000000000000000600052601160045260246000fd5b6000613195826121f4565b91506131a0836121f4565b92508282039050818111156131b8576131b761315b565b5b92915050565b60006131c9826121f4565b91506131d4836121f4565b92508282019050808211156131ec576131eb61315b565b5b92915050565b600081519050919050565b600082825260208201905092915050565b6000613219826131f2565b61322381856131fd565b935061323381856020860161215e565b61323c81612188565b840191505092915050565b600060808201905061325c6000830187612289565b6132696020830186612289565b613276604083018561239f565b8181036060830152613288818461320e565b905095945050505050565b6000815190506132a2816120b3565b92915050565b6000602082840312156132be576132bd61207d565b5b60006132cc84828501613293565b91505092915050565b7f4e487b7100000000000000000000000000000000000000000000000000000000600052601260045260246000fd5b7f4552433732313a206d696e7420746f20746865207a65726f2061646472657373600082015250565b600061333a60208361214d565b915061334582613304565b602082019050919050565b600060208201905081810360008301526133698161332d565b9050919050565b7f4552433732313a20746f6b656e20616c7265616479206d696e74656400000000600082015250565b60006133a6601c8361214d565b91506133b182613370565b602082019050919050565b600060208201905081810360008301526133d581613399565b905091905056fea2646970667358221220097179d4652b42c1a70009fece2bff2d2e915331b4bcf1ba01f379e2f7c5e76d64736f6c63430008110033",
  "immutableReferences": {},
  "source": "// SPDX-License-Identifier: MIT\npragma solidity ^0.8.4;\n\nimport \"@openzeppelin/contracts/token/ERC721/extensions/ERC721URIStorage.sol\";\nimport \"@openzeppelin/contracts/access/Ownable.sol\";\nimport \"@openzeppelin/contracts/utils/Counters.sol\";\n\ncontract CreatorNFT is ERC721URIStorage, Ownable {\n    using Counters for Counters.Counter;\n    Counters.Counter private _tokenIds;\n\n    address private _creatorAddress;\n    uint256 private _price;\n    string private _userReferenceID;\n    string private _creatorTokenURI;\n\n    mapping (uint256 => address) private _tokenIDToOwner;\n\n    constructor(address creatorAddress, uint256 price, string memory userReferenceID, string memory tokenName, string memory tokenSymbol, string memory creatorTokenURI) \n    ERC721(tokenName, tokenSymbol)\n    Ownable()\n    {\n        _creatorAddress = creatorAddress;\n        _price = price;\n        _userReferenceID = userReferenceID;\n        _creatorTokenURI = creatorTokenURI;\n\n        // Transfer ownership of the contract to the Content Creator\n        _transferOwnership(creatorAddress);\n        \n    }\n\n    function changePrice (uint256 newPrice) public onlyOwner {\n        _price = newPrice;\n    }\n\n    function getPrice() public view returns (uint256) {\n        return _price;\n    }\n\n\n    function purchaseSubscription() payable public returns (uint256) {\n        require(msg.value >= _price, \"Insufficient funds\");\n        require(balanceOf(_msgSender()) <= 0, \"Already bought NFT\");\n\n        _tokenIds.increment();\n        uint256 currentID = _tokenIds.current();\n\n\n        _safeMint(_msgSender(), currentID);\n        _setTokenURI(currentID, _creatorTokenURI);\n\n        address tokenOwner = ownerOf(currentID);\n\n        // Transfer ownership of the NFT to the buyer\n        // Transferring first, and then paying Creator to prevent Reentrancy\n        _transfer(tokenOwner, _msgSender(), currentID);\n        _tokenIDToOwner[currentID] = _msgSender();\n\n        // Make a payment to the owner of the token\n        (bool sent, ) = payable(_creatorAddress).call{value: msg.value}(\"\");\n\n        require(sent, \"Payment failed\");\n\n        return currentID;\n\n    }\n}\n\n",
  "sourcePath": "/Users/bhaveshpraveen/projects/compute-coin-deployment/contracts/1_CreatorNFT.sol",
  "compiler": {
    "name": "solc",
    "version": "0.8.17+commit.8df45f5f.Emscripten.clang"
  },
  "schemaVersion": "3.4.11",
  "updatedAt": "2022-12-04T21:37:05.279Z",
  "devdoc": {
    "kind": "dev",
    "methods": {
      "approve(address,uint256)": {
        "details": "See {IERC721-approve}."
      },
      "balanceOf(address)": {
        "details": "See {IERC721-balanceOf}."
      },
      "getApproved(uint256)": {
        "details": "See {IERC721-getApproved}."
      },
      "isApprovedForAll(address,address)": {
        "details": "See {IERC721-isApprovedForAll}."
      },
      "name()": {
        "details": "See {IERC721Metadata-name}."
      },
      "owner()": {
        "details": "Returns the address of the current owner."
      },
      "ownerOf(uint256)": {
        "details": "See {IERC721-ownerOf}."
      },
      "renounceOwnership()": {
        "details": "Leaves the contract without owner. It will not be possible to call `onlyOwner` functions anymore. Can only be called by the current owner. NOTE: Renouncing ownership will leave the contract without an owner, thereby removing any functionality that is only available to the owner."
      },
      "safeTransferFrom(address,address,uint256)": {
        "details": "See {IERC721-safeTransferFrom}."
      },
      "safeTransferFrom(address,address,uint256,bytes)": {
        "details": "See {IERC721-safeTransferFrom}."
      },
      "setApprovalForAll(address,bool)": {
        "details": "See {IERC721-setApprovalForAll}."
      },
      "supportsInterface(bytes4)": {
        "details": "See {IERC165-supportsInterface}."
      },
      "symbol()": {
        "details": "See {IERC721Metadata-symbol}."
      },
      "tokenURI(uint256)": {
        "details": "See {IERC721Metadata-tokenURI}."
      },
      "transferFrom(address,address,uint256)": {
        "details": "See {IERC721-transferFrom}."
      },
      "transferOwnership(address)": {
        "details": "Transfers ownership of the contract to a new account (`newOwner`). Can only be called by the current owner."
      }
    },
    "version": 1
  },
  "userdoc": {
    "kind": "user",
    "methods": {},
    "version": 1
  }
}